:020000040800F2
:1000000008040020C5000008CD000008CF0000084B
:1000100000000000000000000000000000000000E0
:10002000000000000000000000000000D1000008F7
:100030000000000000000000D3000008D500000808
:10004000D700000800000000D7000008D700000813
:10005000D7000008D7000008D7000008D700000824
:1000600000000000D7000008D7000008D7000008F3
:10007000D7000008D7000008D700000800000000E3
:10008000D70000080000000000000000D7000008B2
:1000900000000000D7000008D7000008D7000008C3
:1000A00000000000D700000800000000D700000892
:1000B0000348854600F014F8004800471501000881
:1000C000080400200448804704480047FEE7FEE794
:1000D000FEE7FEE7FEE7FEE711010008B1000008B9
:1000E0001CB5094800900948019005460126009C6E
:1000F00005E0E36807CC33430C3C98471034AC422E
:10010000F7D3FFF7D9FF0000880200089802000823
:100110007047000087B006A88721017005A900205C
:10012000019008700699434A11700599517042492F
:10013000049A0A80414C1921216009232360FF257C
:100140008235294624312160216801273943216005
:100150002168022291432160216804220A4322601F
:10016000216808229143216021681020009081437A
:1001700021602168602291432160216880220A4326
:10018000226003210A0226689643266003AAA52658
:10019000167002AA16888E431680039921709178F2
:1001A0001288274E3270274E3170110A264A11707C
:1001B000256044352560A12121602160234921600B
:1001C00023225204224C2260DB06224A1A60224A71
:1001D000202414620F24E44325460B3515600C25BA
:1001E00095601E4A14600524D460F6311C4C616091
:1001F0006168A160276038463D041A4E376871680F
:1002000001E002059A6122682A4208D122682A4246
:1002100005D122682A4202D122682A42F3D07F1CEB
:100220003760019A51417160BA05EAD5009A9A6126
:10023000E9E7C0460020004002200040002C0140B9
:10024000012C0140032C0140022C0140F10200006E
:100250001410024055FDFFEB000400480014004854
:1002600010E000E00000002002E008C8121F08C1F2
:10027000002AFAD170477047002001E001C1121F27
:10028000002AFBD1704700009802000800000020FF
:080290000804000078020008D8
:04000005080000B13E
:00000001FF
