:020000040800F2
:1000000000200020C10100081102000811020008B0
:1000100000000000000000000000000000000000E0
:1000200000000000000000000000000011020008B5
:10003000000000000000000011020008110200088A
:100040001102000811020008110200081102000844
:100050001102000811020008110200081102000834
:10006000000000001102000811020008110200083F
:100070001102000811020008110200081102000814
:100080001102000811020008110200081102000804
:10009000000000001102000811020008110200080F
:1000A00011020008110200081102000811020008E4
:0C00B0001102000811020008000000000E
:1000BC000448054B10B5834203D0044B002B00D0F1
:1000CC00984710BD00000020000000200000000038
:1000DC0006480749091A8B10C90FC91810B54910E1
:1000EC0003D0044B002B00D0984710BD000000201B
:1000FC00000000200000000010B5074C2378002BF6
:10010C0009D1FFF7D5FF054B002B02D0044800E0C6
:10011C0000BF0123237010BD000000200000000070
:10012C005C020008054B10B5002B03D004490548B0
:10013C0000E000BFFFF7CCFF10BDC0460000000080
:10014C00040000205C02000830B5144B01225A63F5
:10015C0080218900D960A023DB0511491960114B5E
:10016C0011495960596899601A6004E08022520361
:10017C00A023DB059A610B4B1B68DB03FBD50B49FA
:10018C000A684B6801240025A4185D410C604D6081
:10019C0080239B002342E9D01022E9E700100240A3
:1001AC0055FDFFEB10E000E0E7030000200000200D
:1001BC00704700000D488546FFF7FAFF0C480D49C3
:1001CC000D4A002302E0D458C4500433C4188C42A6
:1001DC00F9D30A4A0A4C002301E013600432A2420C
:1001EC00FBD300F011F8FFF7AFFFFEE70020002073
:1001FC0000000020000000207C020008000000200D
:10020C0028000020FEE7000070B500260C4C0D4DB8
:10021C00641BA410A64209D1002600F019F80A4C60
:10022C000A4D641BA410A64205D170BDB300EB5857
:10023C0098470136EEE7B300EB5898470136F2E7E2
:10024C0074020008740200087802000874020008A6
:10025C00F8B5C046F8BC08BC9E467047F8B5C04619
:08026C00F8BC08BC9E46704777
:04027400310100084C
:040278000501000874
:04000005080001C12D
:00000001FF
