:020000040800F2
:1000000000100020C90200081903000819030008A5
:1000100000000000000000000000000000000000E0
:1000200000000000000000000000000019030008AC
:100030000000000000000000190300081903000878
:100040001903000800000000190300081903000844
:100050001903000819030008190300081903000810
:100060000000000019030008190300081903000824
:100070001903000819030008190300080000000014
:100080001903000800000000000000001903000828
:1000900000000000190300081903000819030008F4
:1000A0000000000019030008000000001903000808
:1000B0000000000000000000000000000000000040
:1000C0000448054B10B5834203D0044B002B00D0ED
:1000D000984710BD00000020000000200000000034
:1000E00006480749091A8B10C90FC91810B54910DD
:1000F00003D0044B002B00D0984710BD0000002017
:10010000000000200000000010B5074C2378002BF1
:1001100009D1FFF7D5FF054B002B02D0044800E0C2
:1001200000BF0123237010BD00000020000000006C
:1001300064030008054B10B5002B03D004490548A3
:1001400000E000BFFFF7CCFF10BDC046000000007C
:100150000400002064030008F0B5002601212A4BAA
:1001600080201E601A8801250A4302211A801A88FD
:1001700004240A4304211A801A880A431A801A8820
:10018000802102431A80214B19221A60103A1A600A
:10019000A6220220FF321A601A681D4F2A431A60F5
:1001A0001A6882431A601A68063022431A601A6875
:1001B00082431A601A68083082431A601A68503005
:1001C00082431A601A680A431A601A683A401A6031
:1001D0001E601A682A431A601A6822431A601A6855
:1001E0008243403802431A601A680A431A60822226
:1001F000FF321A60C622FF321A60253AFF3A1A60AF
:100200001A60044A1A60F0BD00200040002C014032
:10021000FFFCFFFFF1020000F0B54746CE4680B577
:1002200083B0FFF799FF8C2290261E4BD2035A61B0
:1002300020221D4BF60533601C4B01241A62253A1F
:100240001A6011329A601A4B1C3A1A601532DA6041
:10025000184A194B00255360536880279360012387
:100260001360164B7F021868596880239B009846DC
:10027000134B001969419C4613683B42FCD043462E
:1002800003401C006342634164465B4223401033D9
:10029000B36100240123C018614113683B42EED1D1
:1002A000EAE7C0460010024055FDFFEB000400489D
:1002B0000014004810E000E0E703000020000020E8
:1002C000F0FF0F007047C0460D488546FFF7FAFF64
:1002D0000C480D490D4A002302E0D458C4500433A1
:1002E000C4188C42F9D30A4A0A4C002301E0136077
:1002F0000432A242FBD300F011F8FFF78DFFFEE7B6
:1003000000100020000000200000002084030008EE
:100310000000002028000020FEE7000070B5002645
:100320000C4C0D4D641BA410A64209D1002600F010
:1003300019F80A4C0A4D641BA410A64205D170BDE1
:10034000B300EB5898470136EEE7B300EB589847F7
:100350000136F2E77C0300087C03000880030008F4
:100360007C030008F8B5C046F8BC08BC9E46704740
:0C037000F8B5C046F8BC08BC9E467047BB
:04037C00350100083F
:040380000901000867
:04000005080002C924
:00000001FF
