:020000040800F2
:1000000008040020D5000008DD000008DF0000081B
:1000100000000000000000000000000000000000E0
:10002000000000000000000000000000E1000008E7
:100030000000000000000000E3000008E5000008E8
:10004000E7000008E7000008E7000008E7000008F4
:10005000E7000008E7000008E7000008E7000008E4
:1000600000000000E7000008E7000008E7000008C3
:10007000E7000008E7000008E7000008E7000008C4
:10008000E7000008E7000008E7000008E7000008B4
:1000900000000000E7000008E7000008E700000893
:1000A000E7000008E7000008E7000008E700000894
:1000B000E7000008E7000008000000000000000062
:1000C0000348854600F014F8004800472501000861
:1000D000080400200448804704480047FEE7FEE784
:1000E000FEE7FEE7FEE7FEE721010008C100000889
:1000F0001CB5094800900948019005460126009C5E
:1001000005E0E36807CC33430C3C98471034AC421D
:10011000F7D3FFF7D9FF0000EC010008FC0100084D
:100120007047000083B0002002901D492320086022
:10013000052001071B4808601B4920200860022099
:10014000C0431A4908600F20C04319490860194884
:1001500019490160006819490860194901200860BF
:10016000FFE7FFE716480068C003002801D4FFE757
:1001700014E0144A516810680023401C5941106073
:10018000516081050120020400920029019001D4F0
:100190000098019001980C490860FFE7E1E7C0462C
:1001A0003410024055FDFFEB2004005000040050C5
:1001B0000014005014E000E0E703000018E000E045
:1001C00010E000E0000000201804005002E008C821
:1001D000121F08C1002AFAD170477047002001E0C1
:1001E00001C1121F002AFBD170470000FC0100086A
:0C01F0000000002008040000DC010008F2
:04000005080000C12E
:00000001FF
