:020000040800F2
:1000000000400020490000084500000845000008A5
:1000100045000008450000084500000800000000F9
:1000200000000000000000000000000000000000D0
:1000300000000000000000000000000000000000C0
:04004000450000086F
:10004400FEE700BF00F002F8FEE700BF184A82B0E6
:10005400136843F00103136013689B07FCD5012365
:100064009360BFF34F8F12498B6803F00C03042B8A
:10007400FAD1CB6943F00203CB61BFF34F8F6FF426
:1000840020430C4AC9691360BFF34F8F00201368E3
:100094000949536983F0C00353610190019B8B426A
:1000A400F7DC019B01330193019B8B42F9DDF0E7FF
:0C00B40000380240000402403F420F00F0
:0400000508000049A6
:00000001FF
