:020000040800F2
:1000000000200020D5010008250200082502000874
:1000100000000000000000000000000000000000E0
:1000200000000000000000000000000025020008A1
:100030000000000000000000250200082502000862
:1000400025020008250200082502000825020008F4
:1000500025020008250200082502000825020008E4
:100060000000000025020008250200082502000803
:1000700025020008250200082502000825020008C4
:1000800025020008250200082502000825020008B4
:1000900000000000250200082502000825020008D3
:1000A0002502000825020008250200082502000894
:0C00B000250200082502000800000000E6
:1000BC000448054B10B5834203D0044B002B00D0F1
:1000CC00984710BD00000020000000200000000038
:1000DC0006480749091A8B10C90FC91810B54910E1
:1000EC0003D0044B002B00D0984710BD000000201B
:1000FC00000000200000000010B5074C2378002BF6
:10010C0009D1FFF7D5FF054B002B02D0044800E0C6
:10011C0000BF0123237010BD000000200000000070
:10012C0070020008054B10B5002B03D0044905489C
:10013C0000E000BFFFF7CCFF10BDC0460000000080
:10014C00040000207002000830B5174B23225A63BC
:10015C00A023DB05154A1A60154B20221A62233A9C
:10016C001A60144B0D3A1A60134B144A5A605A68B1
:10017C009A6001221A6003E0802252020C4B9A61B1
:10018C000D4B1B68DB03FBD50D490A684B6801243A
:10019C000025A4185D410C604D6080239B00234218
:1001AC00EAD00122EAE7C0460010024055FDFFEB01
:1001BC00000400500014005010E000E0E7030000C1
:1001CC0020000020704700000D488546FFF7FAFF1D
:1001DC000C480D490D4A002302E0D458C450043396
:1001EC00C4188C42F9D30A4A0A4C002301E013606C
:1001FC000432A242FBD300F011F8FFF7A5FFFEE793
:10020C0000200020000000200000002090020008C8
:10021C000000002028000020FEE7000070B500263A
:10022C000C4C0D4D641BA410A64209D1002600F005
:10023C0019F80A4C0A4D641BA410A64205D170BDD6
:10024C00B300EB5898470136EEE7B300EB589847EC
:10025C000136F2E788020008880200088C020008C8
:10026C0088020008F8B5C046F8BC08BC9E4670472A
:0C027C00F8B5C046F8BC08BC9E467047B0
:040288003101000838
:04028C000501000860
:04000005080001D519
:00000001FF
